:100000000C9462000C94CC040C94A5040C948A000B
:100010000C948A000C948A000C948A000C948A0038
:100020000C948A000C948A000C948A000C948A0028
:100030000C948A000C948A000C948A000C948A0018
:100040000C945B040C940E060C948A000C948A00A9
:100050000C948A000C948A000C948A000C948A00F8
:100060000C94F3040C948A00000000002400270084
:100070002A0000000000250028002B0000000008D6
:10008000000201000003040700000000000000005F
:10009000010204081020408001020408102001021F
:1000A000040810200000000023002600290004049A
:1000B0000404040404040202020202020303030310
:1000C0000303440711241FBECFEFD8E0DEBFCDBF2E
:1000D00011E0A0E0B1E0E8E9F2E102C005900D9284
:1000E000AA32B107D9F726E0AAE2B1E001C01D9219
:1000F000A833B207E1F710E0C2E6D0E004C02197D0
:10010000FE010E944409C136D107C9F70E941E08AA
:100110000C944A090C940000AF92BF92CF92DF92E8
:10012000EF92FF920F931F93CF93DF936C017B01AC
:100130008B01040F151FEB015E01AE18BF08C0173D
:10014000D10759F06991D601ED91FC910190F081B0
:10015000E02DC6010995892B79F7C501DF91CF9173
:100160001F910F91FF90EF90DF90CF90BF90AF90D5
:100170000895833081F028F4813099F08230A9F01D
:1001800008958730A9F08830C9F08430B1F48091A7
:1001900080008F7D03C0809180008F7780938000E6
:1001A000089584B58F7784BD089584B58F7DFBCF86
:1001B0008091B0008F778093B00008958091B00057
:1001C0008F7DF9CF1F93CF93DF93282F30E0F90174
:1001D000E458FF4F8491F901E057FF4FD491F901A2
:1001E000E255FF4FC491CC23A9F0162F81110E9434
:1001F000B900EC2FF0E0EE0FFF1FEE58FF4FA59176
:10020000B4918FB7F894EC91111108C0D095DE230A
:10021000DC938FBFDF91CF911F910895DE2BF8CF34
:10022000CF93682F617080912C060E94E20061E0FC
:1002300080912D060E94E20060E080912E060E94CF
:10024000E20060E080912F060E94E200C091230648
:10025000809124068F3F21F0909125069111C82F9F
:1002600061E08C2F0E94E20060E08C2FCF910C9413
:10027000E200CF93DF9390E0FC01E057FF4F249121
:1002800082559F4FFC0184918823C9F090E0880F2C
:10029000991FFC01E859FF4FA591B491FC01EE585C
:1002A000FF4FC591D49161110DC09FB7F8948C9107
:1002B000209582238C938881282328839FBFDF91F8
:1002C000CF910895623051F49FB7F8943C91822FFA
:1002D000809583238C93E8812E2BEFCF8FB7F894F2
:1002E000EC912E2B2C938FBFEACF089585ED809350
:1002F000BC008091BC0084FDFCCF10929501089554
:1003000020917101260F3327331F21323105ECF480
:1003100020919501FC0190E080E0243069F082E0BA
:100320000895A09171012191AC014F5A5E4FA40F25
:10033000B52FB11D2C930196861798F3809171010A
:10034000680F6093710180E0089581E00895089539
:100350008FEF9FEF08958FEF9FEF089580915001E9
:1003600090E09195819591090895CF93DF93CB010A
:10037000EA01642F0E948001CE01DF91CF910895A0
:10038000CF93DF931F92CDB7DEB7698361E0CE01D3
:1003900001960E94800181E090E00F90DF91CF9163
:1003A0000895DC01ED91FD918081ED91FD919081A9
:1003B000ED91FD916C9163708E2309F064609F2331
:1003C00009F06860EEEEF1E0E60FF11D65956595C8
:1003D0006D936D917D918D919D91099423C01AC06B
:1003E00012C016C010C01EC009C014C013C006C081
:1003F00019C009C00DC007C00DC014C062507040C4
:10040000804090400BC0615070408040904006C0DA
:100410006E5F01C06F5F7F4F8F4F9F4F9E938E9394
:100420007E936E9308958091C9019091CA010C94B6
:10043000D1018091CB019091CC010C94D101DF923C
:10044000EF92FF920F931F93CF93DF93EC01162F40
:10045000E42E088589858F3F19F09A859111082F20
:100460008F818F3F09F047C08BEF94E00197F1F740
:100470006E2D8E810E94E200612F607189890E9439
:10048000E200612F60728A890E94E200612F60742D
:100490008B890E94E200612F60788C890E94E200C3
:1004A00061E0802F0E94E20060E0802F0E94E20065
:1004B000612F617089890E94E200612F62708A89D0
:1004C0000E94E200612F64708B890E94E200612F1C
:1004D00068708C890E94E20061E0802F0E94E20037
:1004E00060E0802FDF91CF911F910F91FF90EF90EF
:1004F000DF900C94E20060E089890E94390160E09D
:100500008A890E94390160E08B890E94390160E08C
:100510008C890E94390161E08F810E94E20060E0D5
:100520008E810E94E20061E0802F0E94E2002C890F
:1005300030E0F901E458FF4F8491F901E057FF4F93
:10054000F490F901E255FF4FD490DD20B1F1811113
:100550000E94B900ED2DF0E0EE0FFF1FEC55FF4FAC
:10056000A591B491EC91FE2281E009F480E0F82E8F
:1005700060E0802F0E94E20061E0802F0E94E20094
:1005800060E0802F0E94E20081E0F81609F4CBCFF2
:1005900061E089890E94390161E08A890E943901FC
:1005A00061E08B890E94390161E08C890E943901E8
:1005B00060E08F810E94E2005BCFF12CD9CF0F93D6
:1005C0001F93CF93DF938C01FC018689841710F46D
:1005D0004FEF480FF801458764871686E40FF11D39
:1005E0008789C82FC074F8019385690F8F73680FCE
:1005F0006832E4F06852C62BD42FD270F80182859D
:10060000D81741F0638D6D7F638F686040E0C8014B
:100610000E941F02F801D2876C2F606840E0C80179
:10062000DF91CF911F910F910C941F0267FFE3CFD1
:10063000685DE1CF809124068F3F11F182E08093C5
:10064000250640E061E08BE196E00E941F021092D7
:10065000250640E061E08BE196E00E941F02809158
:1006600022068F3F21F48BE49DE20197F1F740E0F1
:1006700060E08BE196E00E94DF021092260608956A
:1006800040E061E08BE196E00E941F02809122062B
:100690008F3F99F78BE49DE20197F1F7EECF1F931F
:1006A000CF93DF93C62F18E0813009F410E082E188
:1006B0002BE235E7F9013197F1F78150D9F760E086
:1006C000809121060E94E20060E08C2F0E94E200EF
:1006D00060E0809121060E94E20083E00E94100108
:1006E0008BE19EE40197F1F783E00E941001C3E5DE
:1006F000D2E0CE010197F1F783E00E941001CE0114
:100700000197F1F782E00E9410012197F1F7612F24
:10071000606240E08BE196E00E941F0284E08093DB
:100720003606809124068F3FA1F440E06CE08BE117
:1007300096E00E941F020E941A0382E0809337060F
:1007400040E066E08BE196E0DF91CF911F910C9441
:100750001F02C09125061092250640E06CE08BE157
:1007600096E00E941F0282E08093250640E06CE044
:100770008BE196E00E941F02C0932506DCCFCF9349
:10078000C82F84E18093300680932006C093310601
:10079000C0931F06809132068C5E80933406809150
:1007A00033068C5E80933506609123068C2F0E9461
:1007B0004F03609124066F3F61F01092340680E48D
:1007C0008093350682E0809325068C2FCF910C9480
:1007D0004F03CF91089510924F0110924E01109245
:1007E000C5011092C6011092C7011092C801109263
:1007F000C401F8941092D4011092D5011092D60140
:100800001092D70178940E941A0310921A0610923F
:10081000190660E084E00C94E2001F93CF93DF930D
:10082000EC01162F8B85811103C08E85882329F05A
:100830004D856C85CE010E94DF021D3039F01A30E3
:1008400029F041E0612FCE010E941F021E868C8597
:100850009F852D85911121C08F5F8C871D3041F0C0
:10086000082E000C990B3D893817190609F02CF455
:100870001C862F5F2D8781E08E878D85082E000CCA
:10088000990B2E892817190609F00CF41D8681E0B2
:1008900090E0DF91CF911F91089581508C871A309D
:1008A00011F087FFEACF8D8981508C87E2CF0895C0
:1008B00090E080E008951F920F920FB60F921124DE
:1008C0002F933F938F939F93AF93BF938091C001DA
:1008D0009091C101A091C201B091C3013091BF01BB
:1008E00023E0230F2D3758F50196A11DB11D20934C
:1008F000BF018093C0019093C101A093C201B09346
:10090000C3018091BB019091BC01A091BD01B09148
:10091000BE010196A11DB11D8093BB019093BC0146
:10092000A093BD01B093BE01BF91AF919F918F91F4
:100930003F912F910F900FBE0F901F90189526E8B2
:10094000230F0296A11DB11DD2CF1F920F920FB699
:100950000F9211242F933F934F935F936F937F9345
:100960008F939F93AF93BF93EF93FF93E091020117
:10097000F09103010995FF91EF91BF91AF919F9184
:100980008F917F916F915F914F913F912F910F9038
:100990000FBE0F901F9018951F920F920FB60F92D7
:1009A00011242F933F934F935F936F937F938F9374
:1009B0009F93AF93BF93EF93FF93E0910001F0916A
:1009C00001010995FF91EF91BF91AF919F918F9197
:1009D0007F916F915F914F913F912F910F900FBE3B
:1009E0000F901F9018951F920F920FB60F9211241F
:1009F0002F933F934F935F936F937F938F939F9327
:100A0000AF93BF93EF93FF938091B900887F8036B7
:100A100009F44AC0F0F5883209F4A5C018F5803110
:100A200009F499C0B8F4882309F4F5C0883009F4B2
:100A300092C0FF91EF91BF91AF919F918F917F9164
:100A40006F915F914F913F912F910F900FBE0F903B
:100A50001F901895883109F486C0803251F7809331
:100A6000940114C0803409F49BC040F48033B9F37E
:100A70008833F9F68093940185ECAEC0803509F493
:100A800083C0883509F494C0883499F60E947601B1
:100A9000D0CF883909F48AC038F5883729F050F466
:100AA000883611F0803729F683E080939501109203
:100AB000930155C0883809F479C0803919F080381D
:100AC00009F0B7CF80919301803208F06FC0E091B8
:100AD000930181E08E0F809393018091BB00F0E041
:100AE000ED58FE4F80833BC0803B39F0D0F4803A14
:100AF00009F477C0883A09F09CCF84E0809395018F
:100B00001092720110927101F0E0E0E0099580917D
:100B1000710181110FC081E0809371011092510128
:100B200009C0803C09F4A8CF883C09F4A5CF883BD4
:100B300009F07FCFE091720181E08E0F8093720106
:100B4000F0E0EF5AFE4F80818093BB0090917201DC
:100B50008091710129C08091BA018093BB0085EC1E
:100B60008093BC0066CF9091B9018091B80198172D
:100B700058F5E091B90181E08E0F8093B901F0E062
:100B8000E856FE4F8081E9CFE091B90181E08E0FF8
:100B90008093B9018091BB00F0E0E856FE4F80835E
:100BA0009091B9018091B8019817C8F285E8D8CF23
:100BB000E091B90181E08E0F8093B9018091BB0073
:100BC000F0E0E856FE4F80838091970181115ECF5F
:100BD00081E08093960184EA8093BC001092950195
:100BE00028CF85EC8093BC001092950180919301F1
:100BF000803230F4E0919301F0E0ED58FE4F108226
:100C00006091930170E083E791E0F0E0E0E0099506
:100C1000109293010ECF1092940138CF1F920F9231
:100C20000FB60F9211242F933F934F935F936F93BF
:100C30007F938F939F93AF93BF93EF93FF93CF9344
:100C4000DF93CDB7DEB7A297DEBFCDBF8EB52091C3
:100C50004E0130914F01232B09F082C0282F2F71B4
:100C600030E030934D0120934C01282F30E095E087
:100C7000359527959A95E1F72130310509F127300F
:100C8000310509F45EC02115310509F0E4C0A296D2
:100C90000FB6F894DEBF0FBECDBFDF91CF91FF91AD
:100CA000EF91BF91AF919F918F917F916F915F91E4
:100CB0004F913F912F910F900FBE0F901F9018955D
:100CC00080914C0190914D01892B21F48091C401B8
:100CD0008EBDDDCF80914C0190914D010197D1F4F3
:100CE0008091D8018230A0F4F8948DEC91E00E94BC
:100CF000D1018091D40178948EBDF8941092D401E2
:100D00001092D5011092D6011092D7017894BFCFDE
:100D1000F894EFCF80914C0190914D01029709F02A
:100D2000B6CF80911A0690911906891B2091190659
:100D300090911A0692171CF090E0890FC9CF90E2AB
:100D4000FCCF8E3F09F07CC080932A0110922B01CA
:100D500010924D0110924C0110921A061092190631
:100D600020914C0130914D011216130604F520918B
:100D70004E0130914F012032310538F4E0914E019F
:100D8000F0914F01E65DFE4F818380914E0190917D
:100D90004F01019690934F0180934E0180914C0139
:100DA00090914D01019790934D0180934C0180915A
:100DB0004C0190914D01892B09F069CF80911A0661
:100DC00020911906082E000C990B01968F71992716
:100DD000022E000C330B8217930769F182E2EAE2DC
:100DE000F1E0DE01119601900D928A95E1F72091D4
:100DF0001A0632E22303D0011124A752BE4FFE018E
:100E0000319601900D923A95E1F780911A068F5F25
:100E10008F7180931A0680911A0690911906891B8A
:100E20002091190690911A06921764F190E0890FAB
:100E300085310CF05C9A10924F0110924E0127CF31
:100E40008F3F09F08DCF90911A0680911906981363
:100E50001ECF5C981CCF20932A0120914C01309129
:100E60004D0120932B0121E030E030934F0120937E
:100E70004E0120914C0130914D01121613060CF4D5
:100E800006CF6ECF90E2D3CFCF93DF9310921E06A2
:100E900010921D0688E091E090931C0680931B063B
:100EA00089E0809321068FEF809322069FE0909344
:100EB000230680932406109225061092260610928F
:100EC0002706109228061092290610922A0685E01D
:100ED00080932C0686E080932D0687E080932E0673
:100EE00088E080932F0661E085E00E94390161E08F
:100EF00086E00E94390161E087E00E94390161E0EB
:100F000088E00E9439011092320680E48093330613
:100F100084E18093340684E58093350661E0809116
:100F200021060E94390161E08EE00E94390160E0F3
:100F30008EE00E94E20061E0809123060E94390168
:100F400081E00E94BF038EE08093220610921A0671
:100F50001092190662E082E00E94390162E083E0AB
:100F60000E943901E0EBF0E0E491F0E0EE0FFF1FAA
:100F7000EC55FF4FA591B491B093CE01A093CD0154
:100F8000E2E9F0E044914093D101E1EBF0E0E4913B
:100F9000F0E0EE0FFF1FEC55FF4FC591D491D093B9
:100FA000D001C093CF01E3E9F0E0E491E093D201F6
:100FB0001092D4011092D5011092D6011092D7014F
:100FC0002BE33FE1C9010197F1F79C91842F89231D
:100FD00091E009F490E08881E82309F092602DEC1B
:100FE00031E09093D3013093CA012093C90183E18A
:100FF00092E09093010180930001809169008C7FC1
:10100000816080936900E89A81E08093D8013093F1
:10101000CC012093CB0189E192E09093030180936E
:10102000020180916900837F846080936900E99A5E
:1010300082E08093D801DF91CF910895CF93DF9321
:10104000CDB7DEB7A2970FB6F894DEBF0FBECDBF07
:10105000789484B5826084BD84B5816084BD85B593
:10106000826085BD85B5816085BD80916E0081609F
:1010700080936E0010928100809181008260809345
:101080008100809181008160809381008091800047
:101090008160809380008091B10084608093B10072
:1010A0008091B00081608093B00080917A0084606C
:1010B00080937A0080917A00826080937A00809198
:1010C0007A00816080937A0080917A0080688093B2
:1010D0007A001092C10062E080E10E94390184E050
:1010E0000E94BF0384B1837D84B9249A61E084E0C7
:1010F0000E94390160E084E00E94E2008CB58F7E9E
:101100008CBD8CB58C7F8CBD8CB580648CBD8CB552
:1011100080688CBD0E94EB0340E060E08BE196E0CC
:101120000E94DF0249E050E060E171E08BE196E06F
:101130000E948C0041E060E08BE196E00E94DF02BB
:101140004EE050E06AE171E08BE196E00E948C0095
:1011500092E2B92E8E010F5F1F4FAA24A39420E0C4
:10116000E22E20E0F22E90911A068091190698172F
:1011700019F1209119063B2D2303F0011124E752A8
:10118000FE4FD8018B2D01900D928A95E1F7230235
:10119000F0011124E752FE4F8081C1809091190621
:1011A0009F5F9F7190931906D12C833009F440C042
:1011B000C0F5823009F453C08FB7F8944091C00154
:1011C0005091C1016091C2017091C3018FBF8091A4
:1011D000C5019091C601A091C701B091C8013A0123
:1011E0004B01681A790A8A0A9B0AD401C301C39782
:1011F000A105B1057CF086B182FB882780F98A259C
:101200008093C4014093C5015093C6016093C70108
:101210007093C801E114F10409F4A5CF0E94000005
:10122000A2CF843071F18E3F39F60E94EB03C4CF18
:10123000C6010197809708F0BFCF4801C401801B09
:10124000910B8C159D050CF0B7CFF40162818BE1F9
:1012500096E00E940D04FFEF8F1A9F0AEFCFCA9409
:10126000CD2809F0A9CF6B81462F50E085E0559538
:1012700047958A95E1F76F718BE196E00E94DF0256
:101280009BCF0E941A0398CFEE0FFF1F0590F49199
:08129000E02D0994F894FFCF52
:1012980075017501000000000D048C005804570406
:1012A8005550412056302E39380053746172746994
:0A12B8006E672075702E2E2E0000C8
:00000001FF
